:020000040000FA
:1000000068080020F5000000070100000901000059
:1000100000000000000000000000000000000000E0
:100020000000000000000000000000000B010000C4
:1000300000000000000000000D0100000F010000A2
:100040001101000011010000110100001101000068
:10005000110100000000000011010000110100006A
:100060001101000011010000110100001101000048
:100070001101000011010000110100001101000038
:100080001101000011010000110100001101000028
:100090001101000011010000110100001101000018
:1000A000110100001101000000000000000000002C
:1000B0000000000000000000000000000000000040
:1000C0000348854600F02CF80048004791020000E4
:1000D00068080020401E00BF00BF00BF00BF00BF77
:1000E00000BF00BF00BF00BF00BF00BF00BFF1D115
:1000F00070470000074802680F210A430260064863
:10010000804706480047FEE7FEE7FEE7FEE7FEE71A
:10011000FEE700002405004045010000C10000008A
:10012000064C0125064E05E02046E36807C82B4330
:1001300098471034B442F7D3FFF7C6FF54040000C9
:100140006404000010B500F071F8002805D00748DD
:1001500007494860C8130749886100F04DF8002836
:1001600002D001200449886010BD0000DFFF07C0F5
:1001700000050040006C00400006004002E008C896
:10018000121F08C1002AFAD170477047002001E011
:1001900001C1121F002AFBD1704710B5130E435442
:1001A000FF231B0413401C0C4B1CC454FF231B02D5
:1001B00013401C0A8B1CC454CB1CC25410BD00003D
:1001C00008B500200B49086001208107086000BFC6
:1001D000084800680028FBD001200B230A220921CF
:1001E0000090082000F000F90021012000F0B6F88E
:1001F00008BD0000000100400B48008CC0B201287F
:1002000010D10948808C0007000F0BD10648806A86
:10021000F0210840402805D10348C06A084201D1B6
:10022000012070470020FCE7C00F00F01748008C49
:10023000C0B2012827D11548808C0007000F22D1B9
:100240001248806AF021084205D11048C06A08426D
:1002500001D1012070470D48806AF0210840102824
:1002600005D10A48C06A084201D10120F2E70748D7
:10027000806AF0210840302805D10448C06A08424D
:1002800001D10120E6E70020E4E70000C00F00F004
:10029000FFF796FF35E01B481B494860FC201949D1
:1002A00008700A204870194A02211648FFF775FFA6
:1002B000164A06211348FFF770FF01201149887282
:1002C00000201349086001201249086000BF10484F
:1002D00000680028FBD001200E49886000200C49EE
:1002E000C86000BF0A48C0680028FBD00020084949
:1002F000086101200749086100BF0548006900281E
:10030000FBD0C8E70400002000150040EFCDAB0093
:10031000001100400010004001B505E00098401EAB
:1003200000900348FFF7D6FE00980028F6D108BDDC
:10033000E703000010B58A0005231B0707242402E9
:100340001B1984001A5110BD012105221207072331
:100350001B02D2188300D1507047000070B50546CB
:100360000C461948C46007201749886000200861BE
:1003700016484862164888621648C86116480862DE
:100380000120C86208630020486114488861022087
:1003900048630846406B8007800F022804D110484C
:1003A000C863104888630BE00748406B8007800FE4
:1003B000012805D1FF200449C863FF200830886365
:1003C0000320FFF7A9FF70BD00150040E7C2C3C4BA
:1003D000C8C7C6C5E7E7E7E7C2C2C2000B0B040106
:1003E000FFFF000021100100F8B507460C46154636
:1003F0001E462046FFF7A8FF00213046FFF79AFF70
:100400001048C4604661069800280DD03846FFF7B2
:100410009BFF00212846FFF78DFF0A480561876092
:10042000012008494031C862074806494862042053
:100430000860012005498860086000200449886040
:10044000F8BD00000025004000509D000020004045
:1004500000210040640400000000002004000000AF
:080460007C0100000024F400FF
:04000005000000C136
:00000001FF
